:060000000A128A110C280F
:10000800FE00030EF1000A08F2000A128A111C28E9
:100018000A128A110F280A128A11B5200A128A11A7
:10002800F900F601F701F80183010A128A1175280F
:10003800831203130C1F2128222830281F0CF000DC
:10004800700C0F39003A031D2A282B282F281E0868
:10005800F800780887000C130B1C3328342845282F
:10006800861B372838283B28F601F7014428061B49
:100078003E283F2844280130F6000030F70063008E
:100088000B1072088A00710E8300FE0E7E0E0900A6
:100098000130831603178800890183160313061796
:1000A800861787018801831203138501860187015A
:1000B80088018901831603138113151795178B1768
:1000C8000B178B15161796170B10831203130C13A7
:1000D800831603130C170F088F3940388F000F143D
:1000E80008000A128A114C200A128A110A128A116F
:1000F80097200A128A115330F500F50B81287608EB
:100108007704031D882889287F28831203139F18E2
:100118008E288F287F289F149128922800007F28F6
:100128000A128A110C28C330831203139F05831601
:1001380003139F121F12831203131F083F394038FD
:100148009F00831603139F13831203131F14043095
:10015800F4003D30F300F30BAF28F40BAF28B428BC
:040168000800013456
:08400000FF3FFF3FFF3FFF3FC0
:04400E00D420FF3F7C
:00000001FF
