:060000000A128A110C280F
:10000800FE00030EF3000A08F4000A128A111C28E5
:100018000A128A110F280A128A1100210A128A115B
:10002800F800F501F601F70183010A128A11622826
:10003800831203130C1F2128222830281F0CF200DA
:10004800720C0F39003A031D2A282B282F281E0866
:10005800F700770887000C130B1C332834285B281B
:10006800861B372838283C28F501F60109145A2838
:10007800061B3F28402849280130F5000030F600CB
:1000880063008312031309105A28861A4C284D2836
:100098005A28F501F6017708F00078080A128A1143
:1000A800DC200A128A118312031309140B10740836
:1000B8008A00730E8300FE0E7E0E09000A128A1152
:1000C80090200A128A110A128A11BD200A128A1176
:1000D800523083120313A200A20B70280000750887
:1000E8007604031D782879288328831203139F1820
:1000F8007E287F2883289F1481288228000078087A
:100108000A128A11F1200A128A1183120313880035
:100118006C280A128A110C280130831603178800EC
:100128008901831603138616061786178701880127
:1001380089018312031385018601870188018901DA
:100148008316031381139516151795178B170B171D
:100158008B159616161796170B10831203130C138C
:10016800831603130C170F088F3940388F000F14AC
:100178000800C330831203139F05831603139F12CD
:100188001F12831203131F083F3940389F0083163C
:1001980003139F13831203131F14043083120313D2
:1001A800A1003D30A000A00BD728A10BD72808003C
:1001B800F1007108831203178D0070088C008316F4
:1001C80003178C130C158B1355308D00AA308D0036
:1001D8008C140C110B108B17080083120313A0004A
:1001E8002008831203178D00831603178C130C1431
:0A01F800831203170C0808000134FD
:08400000FF3FFF3FFF3FFF3FC0
:04400E00D420FF3F7C
:00000001FF
